:020000040000FA
:0600000092EF08F012006F
:020006001200E6
:060008008BEF07F012006F
:02000E000100EF
:0C001000561100008000000000060000F7
:04001C00D9CFE6FF53
:10002000E1CFD9FF360EE126DE6ADE6ADE6ADD6ADE
:10003000DD52DD52010EF36EF90EDB5004E0D89074
:10004000F336E806FCE1F350106E116A126A136A87
:1000500010AE03D01168126813681C0E10C0DBFFCD
:100060001D0E11C0DBFF1E0E12C0DBFF1F0E13C0E2
:10007000DBFF1C0EDBCF10F01D0EDBCF11F01E0ED0
:10008000DBCF12F01F0EDBCF13F01006000E115A5B
:10009000125A135A040E10C0DBFF050E11C0DBFF0D
:1000A000060E12C0DBFF070E13C0DBFF010EF36E5E
:1000B000F90EF3CFDBFFFA0EDB6AF90EDBCF10F09F
:1000C000FA0EDBCF11F0126A136A11AE02D0126879
:1000D0001368040EDBCF05F0050EDBCF06F0060E2D
:1000E000DBCF07F0070EDBCF08F008501318E8AE9F
:1000F00002D0133408D01050055C1150065812502D
:1001000007581350085801E260D1D9501C0FE96E0E
:10011000DACFEAFF100EEECFDBFF110EEECFDBFFE2
:10012000120EEECFDBFF130EEECFDBFFD950100F18
:10013000E96EDACFEAFFD890030EEB32020EEB3213
:10014000010EEB32EF32100EDBCF10F0110EDBCFD1
:1001500011F0120EDBCF12F0130EDBCF13F0D9CF5C
:10016000E9FFDACFEAFFEE501026EE501122EE50F2
:100170001222EE501322040EDBCF05F0050EDBCF6A
:1001800006F0060EDBCF07F0070EDBCF08F00850B5
:100190001318E8AE02D0133408D01050055C11508B
:1001A00006581250075813500858C0E3100EDBCF02
:1001B00014F0110EDBCF15F0120EDBCF16F0130E7C
:1001C000DBCF17F01406000E155A165A175AD9CF5E
:1001D000E9FFDACFEAFFEE501416EE501516EE5096
:1001E0001616EE501716D950100FE96EDACFEAFF47
:1001F0001450EE24106E1550EE20116E1650EE20A5
:10020000126E1750EE20136E10C0DFFF010E11C0EA
:10021000DBFF020E12C0DBFF030E13C0DBFFF90E83
:10022000DBCF10F0FA0EDBCF11F0126A136A11AEB9
:1002300002D012681368D9CFE9FFDACFEAFF030EC4
:10024000EBCFF3FF1350F318E8AE02D0F33408D02D
:10025000EE50105CEE501158EE501258EE501358FC
:1002600001E3ACD0F90EDBCF10F0FA0EDBCF11F0CA
:10027000D89010361136FD0EDB501024E96EFE0EBC
:10028000DB501120EA6E280EEECFDBFF290EEDCFFA
:10029000DBFFDFCF14F0010EDBCF15F0D890143662
:1002A0001536FD0EDB501424E96EFE0EDB501520D2
:1002B000EA6EEECF12F0EFCF13F0F90EDBCF10F0B5
:1002C000FA0EDBCF11F0D89010361136FD0EDB5050
:1002D0001024E96EFE0EDB501120EA6E12C0EEFF14
:1002E00013C0EDFFDFCF10F0010EDBCF11F0D8907F
:1002F00010361136FD0EDB501024E96EFE0EDB5079
:100300001120EA6E280EDBCFEEFF290EDBCFEDFFCA
:10031000F90EDBCF10F0FA0EDBCF11F0D8901036CB
:100320001136FB0EDB501024E96EFC0EDB50112061
:10033000EA6E2A0EEECFDBFF2B0EEDCFDBFFDFCF19
:1003400014F0010EDBCF15F0D89014361536FB0EE5
:10035000DB501424E96EFC0EDB501520EA6EEECF64
:1003600012F0EFCF13F0F90EDBCF10F0FA0EDBCF67
:1003700011F0D89010361136FB0EDB501024E96EC8
:10038000FC0EDB501120EA6E12C0EEFF13C0EDFF31
:10039000DFCF10F0010EDBCF11F0D8901036113600
:1003A000FB0EDB501024E96EFC0EDB501120EA6ED0
:1003B0002A0EDBCFEEFF2B0EDBCFEDFFF90EDB2A93
:1003C000FA0E01E27AD6DB2A78D6010EF36E100E11
:1003D000F3CFDBFF110EDB6A120EDB6A130EDB6A52
:1003E000090EF36E140EF3CFDBFF150EDB6A160E4B
:1003F000DB6A170EDB6A1C0EDBCF10F01D0EDBCFA5
:1004000011F01E0EDBCF12F01F0EDBCF13F0D95010
:10041000100FE96EDACFEAFF030EEB501318E8AEC7
:1004200002D0133408D01050EE5C1150EE58125028
:10043000EE581350EE5802E323EF07F0100EDBCF17
:1004400010F0110EDBCF11F0120EDBCF12F0130EF5
:10045000DBCF13F0010E1F0B07E0D89010361136DA
:1004600012361336E806F9E1180E10C0DBFF190E3C
:1004700011C0DBFF1A0E12C0DBFF1B0E13C0DBFF27
:10048000F90EDB6AFA0EDB6AF90EDBCF10F0FA0E1A
:10049000DBCF11F0126A136A11AE02D01268136832
:1004A000100EDBCF05F0110EDBCF06F0120EDBCF06
:1004B00007F0130EDBCF08F013500818E8AE02D097
:1004C000083408D00550105C0650115807501258D7
:1004D0000850135802E306EF07F0F90EDBCF14F0D3
:1004E000FA0EDBCF15F0140EDB5014C010F015C05F
:1004F00011F005E0D89010361136E804FBE1126ADD
:10050000136A11AE02D0126813680C0E10C0DBFF24
:100510000D0E11C0DBFF0E0E12C0DBFF0F0E13C05D
:10052000DBFF106A010E116E126A136AD9500C0FAC
:10053000E96EDACFEAFFEE501026EE501122EE50AF
:100540001222EE50132210C0E9FF11C0EAFFD8902A
:10055000E936EA36800EE926000EEA222C0EEECFAE
:10056000DBFF2D0EEDCFDBFF0C0EDBCFE9FF0D0E19
:10057000DBCFEAFFD890E936EA36800EE926000E96
:10058000EA22EECF10F0EFCF11F0106C111E000E2A
:1005900011222E0E10C0DBFF2F0E11C0DBFFD95031
:1005A0002C0FE96EDACFEAFF010E0F0B06E0EC52DA
:1005B000D890ED32EF32E806FAE1D9502E0FE96E0D
:1005C000DACFEAFF010E0F0B06E0EC52D890ED32C5
:1005D000EF32E806FAE1F90EDBCF10F0FA0EDBCFCE
:1005E00011F0126A136A11AE02D012681368080E75
:1005F00010C0DBFF090E11C0DBFF0A0E12C0DBFFCB
:100600000B0E13C0DBFF1C0EDBCF10F01D0EDBCF7B
:1006100011F01E0EDBCF12F01F0EDBCF13F0D950FE
:10062000080FE96EDACFEAFF030EEB501318E8AEBD
:1006300002D0133408D01050EE5C1150EE58125016
:10064000EE581350EE5801E3D8D3100EDBCF10F064
:10065000110EDBCF11F0120EDBCF12F0130EDBCF39
:1006600013F0D950080FE96EDACFEAFFEE501026EA
:10067000EE501122EE501222EE5013220C0E10C03A
:10068000DBFF0D0E11C0DBFF0E0E12C0DBFF0F0EE5
:1006900013C0DBFF0C0EDBCF18F00D0EDBCF19F013
:1006A000D89018361936FD0EDB501824E96EFE0E70
:1006B000DB501920EA6EEECF14F0EFCF15F0166A7A
:1006C000176A15AE02D0166817682C0EDBCF10F033
:1006D0002D0EDBCF11F0126A136A11AE02D0126830
:1006E000136810C004F011C005F012C006F013C06A
:1006F00007F014C009F015C00AF016C00BF017C0BF
:100700000CF02EEC08F0300E00C0DBFF310E01C003
:10071000DBFF320E02C0DBFF330E03C0DBFF300E07
:10072000DBCF10F0310EDBCF11F0320EDBCF12F049
:10073000330EDBCF13F00E0ED8901332123211327B
:100740001032E806F9E1300E10C0DBFF310E11C0A7
:10075000DBFF320E12C0DBFF330E13C0DBFF010ED6
:10076000106E116A126A136AD950300FE96EDACF2F
:10077000EAFFEE501016EE501116EE501216EE5023
:100780001316340E10C0DBFF350E11C0DBFF300E28
:10079000DBCF10F0310EDBCF11F0320EDBCF12F0D9
:1007A000330EDBCF13F0D8901332123211321032E5
:1007B000340EDBCF14F0350EDBCF15F0166A176A56
:1007C00015AE02D016681768145010261550112265
:1007D0001650122217501322280E10C0DBFF290ECC
:1007E00011C0DBFF0C0EDBCF18F00D0EDBCF19F0C4
:1007F000D89018361936FB0EDB501824E96EFC0E23
:10080000DB501920EA6EEECF14F0EFCF15F0166A28
:10081000176A15AE02D0166817682E0EDBCF10F0DF
:100820002F0EDBCF11F0126A136A11AE02D01268DC
:10083000136810C004F011C005F012C006F013C018
:1008400007F014C009F015C00AF016C00BF017C06D
:100850000CF02EEC08F0300E00C0DBFF310E01C0B2
:10086000DBFF320E02C0DBFF330E03C0DBFF300EB6
:10087000DBCF10F0310EDBCF11F0320EDBCF12F0F8
:10088000330EDBCF13F00E0ED8901332123211322A
:100890001032E806F9E1300E10C0DBFF310E11C056
:1008A000DBFF320E12C0DBFF330E13C0DBFF010E85
:1008B000106E116A126A136AD950300FE96EDACFDE
:1008C000EAFFEE501016EE501116EE501216EE50D2
:1008D0001316340E10C0DBFF350E11C0DBFF280EDF
:1008E000DBCF14F0290EDBCF15F0166A176A15AEB0
:1008F00002D016681768300EDBCF18F0310EDBCF50
:1009000019F0320EDBCF1AF0330EDBCF1BF0D8908C
:100910001B321A3219321832340EDBCF1CF0350E6E
:10092000DBCF1DF01E6A1F6A1DAE02D01E681F6855
:100930001C5018261D5019221E501A221F501B220F
:100940001850145C106E19501558116E1A50165824
:100950001B501758280E10C0DBFF290E11C0DBFFFB
:100960000C0EDBCF18F00D0EDBCF19F0D890183637
:100970001936FB0EDB501824E96EFC0EDB501920F3
:10098000EA6EEECF14F0EFCF15F0166A176A15AEC7
:1009900002D0166817682C0EDBCF10F02D0EDBCFBF
:1009A00011F0126A136A11AE02D01268136810C0F7
:1009B00004F011C005F012C006F013C007F014C017
:1009C00009F015C00AF016C00BF017C00CF02EECA1
:1009D00008F0300E00C0DBFF310E01C0DBFF320E2D
:1009E00002C0DBFF330E03C0DBFF300EDBCF10F0A5
:1009F000310EDBCF11F0320EDBCF12F0330EDBCF36
:100A000013F00E0ED8901332123211321032E80663
:100A1000F9E1300E10C0DBFF310E11C0DBFF320EEA
:100A200012C0DBFF330E13C0DBFF010E106E116A24
:100A3000126A136AD950300FE96EDACFEAFFEE502E
:100A40001016EE501116EE501216EE501316340E0C
:100A500010C0DBFF350E11C0DBFF300EDBCF10F016
:100A6000310EDBCF11F0320EDBCF12F0330EDBCFC5
:100A700013F0D8901332123211321032340EDBCF11
:100A800014F0350EDBCF15F0166A176A15AE02D0DA
:100A9000166817681450102615501122165012228D
:100AA000175013222A0E10C0DBFF2B0E11C0DBFFE4
:100AB0000C0EDBCF18F00D0EDBCF19F0D8901836E6
:100AC0001936FD0EDB501824E96EFE0EDB5019209E
:100AD000EA6EEECF14F0EFCF15F0166A176A15AE76
:100AE00002D0166817682E0EDBCF10F02F0EDBCF6A
:100AF00011F0126A136A11AE02D01268136810C0A6
:100B000004F011C005F012C006F013C007F014C0C5
:100B100009F015C00AF016C00BF017C00CF02EEC4F
:100B200008F0300E00C0DBFF310E01C0DBFF320EDB
:100B300002C0DBFF330E03C0DBFF300EDBCF10F053
:100B4000310EDBCF11F0320EDBCF12F0330EDBCFE4
:100B500013F00E0ED8901332123211321032E80612
:100B6000F9E1300E10C0DBFF310E11C0DBFF320E99
:100B700012C0DBFF330E13C0DBFF010E106E116AD3
:100B8000126A136AD950300FE96EDACFEAFFEE50DD
:100B90001016EE501116EE501216EE501316340EBB
:100BA00010C0DBFF350E11C0DBFF2A0EDBCF10F0CB
:100BB0002B0EDBCF11F0126A136A11AE02D012684D
:100BC0001368300EDBCF14F0310EDBCF15F0320E90
:100BD000DBCF16F0330EDBCF17F0D890173216327A
:100BE00015321432340EDBCF18F0350EDBCF19F08E
:100BF0001A6A1B6A19AE02D01A681B6818501426AC
:100C0000195015221A5016221B5017221450102664
:100C10001550112216501222175013222A0E10C0FE
:100C2000DBFF2B0E11C0DBFF080EDBCF10F0090E2F
:100C3000DBCF11F0D89010361136FD0EDB501024AA
:100C4000E96EFE0EDB501120EA6E240EEECFDBFFC4
:100C5000250EEDCFDBFF080EDBCF10F0090EDBCF4A
:100C600011F0D89010361136FB0EDB501024E96ECF
:100C7000FC0EDB501120EA6E260EEECFDBFF270EB6
:100C8000EDCFDBFFD950240FE96EDACFEAFF010E7A
:100C90000F0B06E0EC52D890ED32EF32E806FAE1A5
:100CA000D950260FE96EDACFEAFF010E0F0B06E0EE
:100CB000EC52D890ED32EF32E806FAE1240EDBCFA9
:100CC00014F0250EDBCF15F0280EDB50145C126EED
:100CD000290EDB501558136E0C0EDBCF10F00D0EE5
:100CE000DBCF11F0D89010361136FD0EDB501024FA
:100CF000E96EFE0EDB501120EA6E12C0EEFF13C04B
:100D0000EDFF260EDBCF14F0270EDBCF15F02A0EF9
:100D1000DB50145C126E2B0EDB501558136E0C0E4C
:100D2000DBCF10F00D0EDBCF11F0D890103611365E
:100D3000FB0EDB501024E96EFC0EDB501120EA6E36
:100D400012C0EEFF13C0EDFF280EDBCF14F0290E0A
:100D5000DBCF15F0240EDB501424126E250EDB5071
:100D60001520136E080EDBCF10F0090EDBCF11F04B
:100D7000D89010361136FD0EDB501024E96EFE0EB1
:100D8000DB501120EA6E12C0EEFF13C0EDFF2A0EF9
:100D9000DBCF14F02B0EDBCF15F0260EDB50142426
:100DA000126E270EDB501520136E080EDBCF10F0ED
:100DB000090EDBCF11F0D89010361136FB0EDB5048
:100DC0001024E96EFC0EDB501120EA6E12C0EEFF1B
:100DD00013C0EDFFD950080FE96EDACFEAFF180E05
:100DE000DB50EE26190EDB50EE221A0EDB50EE22FF
:100DF0001B0EDB50EE2203EF03F0F90EDB2AFA0E96
:100E000002E244EF02F0DB2A44EF02F0D950140F63
:100E1000E96EDACFEAFFEE06000EEE5AEE5AEE5A0F
:100E2000D950180FE96EDACFEAFF100EEECFDBFFD4
:100E3000110EEECFDBFF120EEECFDBFF130EEECF67
:100E4000DBFFFBEF01F0360EE15C02E2E16AE55206
:0A0E5000E16EE552E7CFD9FF120072
:060E5A00D9CFE6FFE1CF55
:100E6000D9FF460EE1261F0EDE6EDD6A49D88B845F
:100E700006019A6B9B6B8B90DECFE6FFDDCFE6FF22
:100E8000000EE66E0D0EE66ED950020FE66E000EF5
:100E9000DA20E66E0EEC00F0106E060EE15E1050E9
:100EA000000EE66E0D0EE66ED950020FE66E000ED5
:100EB000DA20E66EF3EC07F0E552E552E552E55232
:100EC000F3CFE9FFF4CFEAFF400ED926EECFDEFFE5
:100ED000EECFDEFFEECFDEFFEECFDEFFEECFDEFFAA
:100EE000EECFDEFF460ED95E010EE66EA0EC08F0F6
:100EF000E5528B8206019A519B11BAE18B92F4D78D
:100F0000D38CD38AD388D70EE66E66EC08F0E55210
:100F1000946A8B6A1200D8CFE4FFE0CFE4FFE46E5E
:100F2000DACFE4FFE652F2A405D0010E06019A6F73
:100F30009B6B8B80F294E552E5CFDAFFE550E5CF6D
:080F4000E0FFE5CFD8FF10002F
:080F48000E0EF66E000EF76EAE
:100F5000000EF86E06010900F550956F0900F55076
:100F6000966F03E1956701D03DD00900F550906F71
:100F70000900F550916F0900F550926F09000900C2
:100F8000F550E96E0900F550EA6E09000900090004
:100F9000F550936F0900F550946F09000900F6CFE2
:100FA00097F6F7CF98F6F8CF99F690C6F6FF91C668
:100FB000F7FF92C6F8FF0601935302E1945307E04E
:100FC0000900F550EE6E9307F8E29407F9D797C63B
:100FD000F6FF98C6F7FF99C6F8FF06019507000EC1
:060FE000965BBFD7120072
:0A0FE600D9CFE6FFE1CFD9FF080ED6
:100FF000E126060EDBCFE9FF070EDBCFEAFFDFCFEE
:10100000EEFF010EDBCFEEFF020EDBCFEEFF060E92
:10101000DBCFE9FF070EDBCFEAFF030EE926000E68
:10102000EA22030EDBCFEEFF040EDBCFEEFF050E50
:10103000DBCFEEFF060EDBCF10F0070EDBCF11F09B
:1010400010C0F3FF11C0F4FF080EE15C02E2E16A98
:0C105000E552E16EE552E7CFD9FF120037
:04105C000450090231
:10106000F3CF00F0F4CF01F00A02F3500126000E96
:10107000F420026E04500B02F3500226000EF420FE
:10108000036E04500C02F350032605500902F3507E
:101090000126F4500222000E032205500A02F350EA
:1010A0000226F450032205500B02F350032606508B
:1010B0000902F3500226F450032206500A02F350AC
:0C10C000032607500902F350032612001B
:0410CC00D9CFE6FF93
:1010D000DACFE6FFE1CFD9FFE2CFDAFFFD0EDB503A
:1010E0007F0BD56ED76AD66AF294FD0EDBAE02D0C6
:1010F000F28A01D0F29AD58EE552E5CFDAFFE7CF3A
:04110000D9FF120001
:0C110400800EF36E00EE00F00F0E01D81C
:101110001200EA6002D0EE6AFCD7F350E9601200D8
:04112000EE6AFCD7A0
:0C1124001EEE00F02EEE00F0F86A0F9CAA
:10113000A4EC07F003EC00F02DEC07F0FBD7120055
:10114000FF0EE350E84E1200000000D000D000D0A7
:06115000E82EFAD71200A0
:0A1156000000C90092015B022403AF
:10116000ED03B6047E0547061007D907A1086A09F2
:10117000320AFB0AC30B8B0C530D1B0EE30EAB0F95
:10118000721039110012C7128E1355141B15E11578
:10119000A7166D173318F818BD19821A461B0B1CB9
:1011A000CF1C931D561E191FDC1F9F206121232277
:1011B000E422A62367242725E725A72667272628D4
:1011C000E528A329612A1E2BDB2B982C542D102EE9
:1011D000CC2E862F4130FB30B4316D322633DE33D6
:1011E00096344D350336B9366F372438D8388C39B4
:1011F0003F3AF23AA43B563C073DB73D673E163FA7
:10120000C53F73402041CD4179422543D0437A44C4
:101210002345CC4574461C47C34769480E49B3492A
:10122000574AFA4A9D4B3F4CE04C804D204EBF4EF2
:101230005D4FFA4F97503351CE51685201539A5334
:101240003254C9545F55F45589561D57B05742580A
:10125000D3586359F359815A0F5B9C5B285CB35C8C
:101260003D5DC65D4F5ED65E5D5FE25F6760EB60D1
:101270006E61F0617162F1627063EE636B64E764EA
:101280006265DD655666CE664567BC673168A568F0
:1012900019698B69FC696C6ADB6A4A6BB76B236CF2
:1012A0008E6CF86C616DC96D306E956EFA6E5E6F06
:1012B000C06F22708270E17040719D71F97154723B
:1012C000AE7206735E73B5730A745E74B17403759F
:1012D0005475A475F37540768D76D87622776B7742
:1012E000B377F9773F788378C6780879497989792F
:1012F000C779047A417A7C7AB57AEE7A257B5C7B71
:10130000917BC47BF77B297C597C887CB67CE27C12
:101310000E7D387D617D897DB07DD57DF97D1C7E1A
:101320003E7E5E7E7E7E9C7EB97ED47EEF7E087F92
:10133000207F377F4C7F617F747F867F967FA67F7B
:10134000B47FC17FCD7FD77FE07FE87FEF7FF57FE0
:10135000F97FFC7FFE7FFF7FFE7FFC7FF97FF57FBB
:10136000EF7FE87FE07FD77FCD7FC17FB47FA67F0F
:10137000967F867F747F617F4C7F377F207F087FD9
:10138000EF7ED47EB97E9C7E7E7E5E7E3E7E1C7E1F
:10139000F97DD57DB07D897D617D387D0E7DE27CD6
:1013A000B67C887C597C297CF77BC47B917B5C7BF9
:1013B000257BEE7AB57A7C7A417A047AC779897985
:1013C00049790879C67883783F78F977B3776B776E
:1013D0002277D8768D764076F375A47554750375AB
:1013E000B1745E740A74B5735E730673AE72547230
:1013F000F9719D714071E17082702270C06F5E6FF3
:10140000FA6E956E306EC96D616DF86C8E6C236CE2
:10141000B76B4A6BDB6A6C6AFC698B691969A568F2
:101420003168BC674567CE665666DD656265E76410
:101430006B64EE637063F1627162F0616E61EB6028
:101440006760E25F5D5FD65E4F5EC65D3D5DB35C2B
:10145000285C9C5B0F5B815AF3596359D3584258FF
:10146000B0571D578956F4555F55C95432549A5395
:1014700001536852CE5133519750FA4F5D4FBF4ED2
:10148000204E804DE04C3F4C9D4BFA4A574AB349A1
:101490000E496948C3471C477446CC4523457A44E6
:1014A000D04325437942CD4120417340C53F163F8B
:1014B000673EB73D073D563CA43BF23A3F3A8C3974
:1014C000D83824386F37B93603364D359634DE3385
:1014D00026336D32B431FB304130862FCC2E102EA6
:1014E000542D982CDB2B1E2B612AA329E5282628B6
:1014F0006727A726E72527256724A623E42223229A
:1015000061219F20DC1F191F561E931DCF1C0B1C31
:10151000461B821ABD19F81833186D17A716E11566
:101520001B1555148E13C712001239117210AB0F10
:10153000E30E1B0E530D8B0CC30BFB0A320A6A0918
:10154000A108D907100747067E05B604ED0324035A
:101550005B029201C900000037FF6EFEA5FDDCFCB6
:1015600013FC4AFB82FAB9F9F0F827F85FF796F610
:10157000CEF505F53DF475F3ADF2E5F11DF155F04D
:101580008EEFC7EE00EE39ED72ECABEBE5EA1FEA49
:1015900059E993E8CDE708E743E67EE5BAE4F5E3E9
:1015A00031E36DE2AAE1E7E024E061DF9FDEDDDD0B
:1015B0001CDD5ADC99DBD9DA19DA59D999D8DAD78E
:1015C0001BD75DD69FD5E2D425D468D3ACD2F0D159
:1015D00034D17AD0BFCF05CF4CCE93CDDACC22CC4C
:1015E0006ACBB3CAFDC947C991C8DCC728C774C64E
:1015F000C1C50EC55CC4AAC3F9C249C299C1EAC03B
:101600003BC08DBFE0BE33BE87BDDBBC30BC86BBFC
:10161000DDBA34BA8CB9E4B83DB897B7F2B64DB676
:10162000A9B506B563B4C1B320B380B2E0B141B18E
:10163000A3B006B069AFCDAE32AE98ADFFAC66AC2C
:10164000CEAB37ABA1AA0CAA77A9E3A850A8BEA736
:101650002DA79DA60DA67FA5F1A464A4D8A34DA394
:10166000C3A23AA2B1A12AA1A3A01EA0999F159F2F
:10167000929E109E8F9D0F9D909C129C959B199BF6
:101680009E9A239AAA993299BB984498CF975B97D0
:10169000E7967596049694952595B6944994DD93AE
:1016A000729308939F923792D0916B910691A2907A
:1016B0004090DE8F7E8F1F8FC08E638E078EAC8D25
:1016C000528DFA8CA28C4B8CF68BA28B4F8BFD8AA1
:1016D000AC8A5C8A0D8AC08973892889DE889588DE
:1016E0004D880788C1877D873A87F886B7867786D1
:1016F0003986FC85BF8584854B851285DB84A4846F
:101700006F843C840984D783A78378834A831E83AC
:10171000F282C8829F82778250822B820782E48184
:10172000C281A2818281648147812C811181F880EC
:10173000E080C980B4809F808C807A806A805A80E3
:101740004C803F80338029802080188011800B805E
:0617500007800480028006
:020000040030CA
:0100010008F6
:010003001EDE
:010005008377
:010006008178
:00000001FF
